:020000041000EA
:1000000000B5324B212058609868022188439860DF
:10001000D860186158612E4B002199600221596106
:100020000121F02299502B49196001219960352056
:1000300000F044F80222904214D00621196600F024
:1000400034F8196E01211966002018661A6600F04E
:100050002CF8196E196E196E052000F02FF8012189
:100060000842F9D1002199601B49196000215960AB
:100070001A491B48016001219960EB211966A021F2
:10008000196600F012F800219960164914480160C1
:100090000121996001BC002800D000471248134993
:1000A000086003C880F30888084703B5996A0420EC
:1000B0000142FBD001200142F8D103BD02B5186610
:1000C0001866FFF7F2FF186E186E02BD00000240BE
:1000D000000000180000070000035F00212200005C
:1000E000F4000018222000A00001001008ED00E03C
:1000F00000000000000000000000000074B24E7A12
:1001000000200420F7010010C3010010C5010010F9
:10011000C1010010C1010010C1010010C101001097
:10012000C1010010C1010010C1010010C701001081
:10013000C1010010C1010010C9010010CB01001065
:10014000CD010010CD010010CD010010CD01001037
:10015000CD010010CD010010CD010010CD01001027
:10016000CD010010CD010010CD010010CD01001017
:10017000CD010010CD010010CD010010CD01001007
:10018000CD010010CD010010CD010010CD010010F7
:10019000CD010010CD010010CD010010CD010010E7
:1001A000CD010010CD010010CD010010CD010010D7
:1001B000CD010010CD010010CD010010CD010010C7
:1001C00000BE00BE00BE00BE00BE00BE00F04BF888
:1001D000103800BEF2EB88715829021078290210FD
:1001E0003402001090A31AE700202149086006C8D5
:1001F00081F3088810471F48006800282FD10DA4FC
:100200000ECC002902D000F012F8F9E71A491B4A77
:10021000002000E001C19142FCD1194988471949E9
:1002200088471949884700BEFDE701C901C29A42C3
:10023000FBD3704778290210C000002080200020E6
:100240003849021000000420000004203849021040
:1002500000100420001004200000000070470B482C
:100260000BF0E2FB0047EFF30580C0B270470000DF
:1002700008ED00E0000000D08020002014400020A5
:10028000FDA2001079260010B9A2001057560000F8
:1002900006005250ABB36053B0FB01100600525041
:1002A000861C0302C0FB0110060052505422A29D7E
:1002B000C4FB011005005250DE65F4683849021095
:1002C000F8B5C04610B5064C2378002B07D1054B76
:1002D000002B02D0044800E000BF0123237010BDB2
:1002E000882100200000000008D70110044B10B541
:1002F000002B03D00349044800E000BF10BDC046F6
:10030000000000008C21002008D70110F0B5DE4667
:1003100057464E464546E0B585B000920393436884
:10032000012B00D075E08D68012D00D073E083684B
:100330009A46036899464B6801930B680293002420
:100340000027364BA8463D1C1F1C00E001345346D5
:10035000013BA34211D9A3004A469E58391C301CC8
:100360000DF082FE002800D0371C291C301C0DF037
:1003700091FE0028EAD0351CE8E7454698464B46F2
:100380001F6800239B4601E027680135A84535D941
:10039000AC004C442668391C301C0DF07BFE002854
:1003A000F2D06B1C9B004A469B589A46191C301C85
:1003B0000DF070FE0028E7D0391C301C0DF0FBFD5D
:1003C000071C5146301C0DF0F6FD011C381C0DF0C9
:1003D000F7FD00990DF05EFE0028D5D05B469E002B
:1003E000029B9C46664428000DF059FE30605B4637
:1003F00001339BB29B46019B9B45C5D1039B5A464B
:100400001A80002005B0F0BCBB46B246A946A04603
:10041000F0BD0348F6E70248F4E7C046FFFF7F7FE0
:1004200014FCFFFF152040427047152040427047E2
:100430001520404270474023CB5C03704823CB56C5
:1004400043704B23CB5C83704923CB5CC3704A233E
:10045000CB5C03719023CB5883609423CB58C3604B
:100460009823CB5803619C23CB584361A023CB58DE
:1004700083617047836F022B05D0052B03D0072BB8
:1004800001D00A2B11D13223C35C002B10D1613370
:10049000C35C002B0FD0836B012B0FD1C36B5A6849
:1004A000094B9A420DD1002070470A204042FBE7D9
:1004B00009204042F8E709204042F5E70920404280
:1004C000F2E709204042EFE7B12D0010152040422D
:1004D0007047152040427047012A02D10160002078
:1004E0007047022A05D0032AF9D0012AF7D101600A
:1004F000F5E70B680360F2E7012A02D101600020F2
:100500007047022A05D0032AF9D0012AF7D10160E9
:10051000F5E70B680360F2E730B583B005006B4682
:10052000020003CA03C32C00083C04E0230006CBEE
:1005300006C52500083C019960680DF095FD00286E
:10054000F4D16B4606CB06C503B030BD82B0F0B522
:10055000C64600B507000D00904607934B1EDE0F00
:10056000F618761008E0E90079180CCC0CC1721E60
:10057000D30F9B1835005E10454507DDF4003C198C
:10058000089960680DF086FD0028ECD1ED007D191A
:1005900007AB06CB06C580BCB846F0BC08BC02B0B1
:1005A000184782B0F0B5CE4600B586B0060003917C
:1005B00017000D930C0006E0EB00F318E40034196B
:1005C00006CB06C42C007A1ED30F9B185B10A342E7
:1005D0000FDD631C5A0091461B01F318551EEA00FB
:1005E000B218596850680DF03FFD0028E4D14D461F
:1005F000E2E7FB0705D4023FFA0FD7197F10A742A5
:1006000010D005AB01930E9B00930D9B039A210024
:100610003000FFF79BFF06B080BCB946F0BC08BCB9
:1006200002B01847631C5B00013BDA00B218E4001B
:10063000341903CA03C41C00E3E7F0B5C64600B58D
:1006400084B005009046091ACF10082919DDBB1E99
:10065000DC0FE418641000E0013CE300EB1802A991
:100660000A0041CB41C201AB424612781A70039B8B
:100670000093029B3A0021002800FFF792FF002C14
:10068000EAD104B080BCB846F0BDF0B5C64600B5AE
:1006900086B005008846170003AA1370FFF7CDFF48
:1006A000444601E0340008342600A7421ED9696898
:1006B00060680DF0EFFC0028F4D004AB9C461A00F3
:1006C000210009C909C22A000ACA0AC44246521BAB
:1006D000D21001A903A80078087063465B680093F4
:1006E000049B00212800FFF75CFFDBE706B080BC1D
:1006F000B846F0BD10B50C6812681B680168A4000C
:100700000919920018000DF0A7FE002010BD00008E
:10071000F0B5DE4657464E464546E0B591B004007A
:100720000E900E1C101C0F93E30FA44663445F1041
:1007300003970DF015FDB64AB64B0BF048FC0400CC
:100740000D00301C0DF00CFD02000B0020002900F4
:100750000BF01FFC0BF08EFD0BF03EFD0DF000FDCD
:100760000C900D9100228023DB050CF029FA0BF090
:1007700033FD041C0421380004F010FD0490042112
:10078000380004F00BFD83460421380004F006FD18
:100790000B900421380004F001FD0590042138007D
:1007A00004F0FCFC06900421380004F0F7FC0790EC
:1007B0000027B9465B460A93A346039B994500DB95
:1007C00094E048460BF07CFC02000B000BF0D8FBD9
:1007D0000022914B0BF0D4FB8D4A8E4B0BF0F7FBB4
:1007E00004000D000E980BF06BFC02000B000BF0E8
:1007F000C7FB02000B00200029000BF0CAFB0BF026
:1008000023FD0BF0E9FC061C58460DF0A9FC0090F6
:1008100001910C980D9902000B000BF0B1FB040044
:100820000D00301C0DF09CFC02000B002000290084
:100830000BF0CDFB03000C000893099402000B00A1
:10084000009801990BF09CFB0022734B0BF098FB76
:100850000BF0C2FC061C494689008846049C4444AF
:10086000011C58460DF0B1FB20605946FE20800562
:100870000DF0A1FB0DF074FC02000B000BF080FBEF
:1008800004000D00301C0DF06BFC06000F000A99EF
:1008900041448A4632003B00200029000BF079FBDE
:1008A0000BF09AFC51460860089A099B0098019940
:1008B0000BF05DFB0022584B0BF062FB03000800BD
:1008C00019000B9B9C46E04432003B000C00802149
:1008D00009064518200029000BF05BFB0BF07CFC9F
:1008E0004346186001239C46E14466E70A9B9B4609
:1008F00000230A935B4608930B9B98465DE0AF008C
:10090000089BDB590093069BDC19216800980DF0C9
:1009100072FB061C079B9846B84443461968534629
:10092000D8590DF068FB011C301C0DF049FB059BEC
:100930009946B9445B4619680DF042FB061C4B46CC
:100940001860049BD8590DF00BFC00900191301CED
:100950000DF006FC06000F0020680DF001FC0200FF
:100960000B000BF00DFB02000B00300039000BF008
:1009700007FB06000F00434618680DF0F1FB02006C
:100980000B00300039000BF0FBFA02000B0000985E
:1009900001990BF01CFB0BF01FFC5B4618604346F3
:1009A00022681A604B461B6823600135039B9D42F9
:1009B000A5DBD0460A9B01330A930A9B1B9A9342FC
:1009C0000BD29B001A9A93469B445A460F99CB58D8
:1009D000136000273D00C246E8E7089B9B46049849
:1009E00004F0E0FB584604F0DDFB0B9804F0DAFB62
:1009F000059804F0D7FB069804F0D4FB079804F0A0
:100A0000D1FB11B0F0BCBB46B246A946A046F0BD32
:100A1000182D4454FB2109400000F03FF0B5C646B4
:100A200000B582B005008846171C1E0000240EE0A9
:100A3000AA68230053439B0029688C4663440192B3
:100A400000933A1C41463000FFF762FE01346B68A8
:100A5000A342EDD8002002B080BCB846F0BD000033
:100A6000F0B5DE4657464E464546E0B591B0040027
:100A70000E900E1C101C0F93E30FA44663445F10EE
:100A800003970DF06DFBB54AB54B0BF0A0FA0400CF
:100A90000D00301C0DF064FB02000B00200029004B
:100AA0000BF077FA0BF0E6FB0BF096FB0DF058FB22
:100AB0000C900D9100228023DB050CF081F80BF0E7
:100AC0008BFB0A900421380004F068FB0490042199
:100AD000380004F063FB83460421380004F05EFB19
:100AE0000B900421380004F059FB059004213800D4
:100AF00004F054FB06900421380004F04FFB0790EB
:100B00000027B946039B994500DB97E048460BF068
:100B1000D7FA02000B000BF033FA0022914B0BF0D6
:100B20002FFA8E4A8E4B0BF052FA04000D000E98ED
:100B30000BF0C6FA02000B000BF022FA02000B00C9
:100B4000200029000BF025FA0BF07EFB0BF044FB94
:100B5000061C0A9F381C0DF003FB009001910C9CB1
:100B60000D9D22002B00200029000BF009FA040043
:100B70000D00301C0DF0F4FA02000B0020002900DB
:100B80000BF025FA03000C000893099402000B00F7
:100B9000009801990BF0F4F90022724B0BF0F0F978
:100BA0000BF01AFB061C4C46A400A046049C4444CF
:100BB000011CFE2080050DF008FA2060391CFE2083
:100BC00080050DF0F8F90DF0CBFA02000B000BF0E8
:100BD000D7F904000D00301C0DF0C2FA06000F001A
:100BE000DA46C24402000B00200029000BF0D1F9C4
:100BF0000BF0F2FA51460860089A099B0098019997
:100C00000BF0B5F90022574B0BF0BAF903000800BE
:100C100019000B9B9C46E04432003B000C008021F5
:100C200009064518200029000BF0B3F90BF0D4FA9F
:100C30004346186001239C46E14463E700230A937E
:100C40005B4608930B9B98465DE0AF00089BDB5921
:100C50000093069BDC19216800980DF0CCF9061C66
:100C6000079B9846B844434619685346D8590DF037
:100C7000C2F9011C301C0DF0A3F9059B9946B9443B
:100C80005B4619680DF09CF9061C4B461860049BE6
:100C9000D8590DF065FA00900191301C0DF060FA02
:100CA00006000F0020680DF05BFA02000B000BF04D
:100CB00067F902000B00300039000BF058F906000C
:100CC0000F00434618680DF04BFA02000B0030008D
:100CD00039000BF055F902000B00009801990BF058
:100CE00076F90BF079FA5B461860434622681A6081
:100CF0004B461B6823600135039B9D42A5DBD04614
:100D00000A9B01330A930A9B1B9A93420BD29B00C6
:100D10001A9A93469B445A460F99CB581360002762
:100D20003D00C246E8E7089B9B46049804F03AFA67
:100D3000584604F037FA0B9804F034FA059804F09A
:100D400031FA069804F02EFA079804F02BFA11B045
:100D5000F0BCBB46B246A946A046F0BD182D44548F
:100D6000FB2109400000F03FF0B5C64600B582B057
:100D700005008846171C1E0000240EE0AA68230008
:100D800053439B0029688C466344019200933A1CAC
:100D900041463000FFF764FE01346B68A342EDD892
:100DA000002002B080BCB846F0BD0000F8B5DE46B9
:100DB00057464E464546E0B506000F009146984618
:100DC0000AAB04CB93461B789A46002408E0A42380
:100DD000F358A200D2580134E300DA51FB185D60E9
:100DE000338EA3421BD94B4618570DF05DF941468F
:100DF0000DF0E1F859460DF0FEF8051C5346002BA6
:100E0000E5D0A423F258A300D158084804F09EF975
:100E1000281C04F0B3F9064804F098F9D7E700203D
:100E2000F0BCBB46B246A946A046F8BDA8D7011003
:100E300080DB0110F0B5D6464F464646C0B50600E9
:100E40000F0092469946002408E0A423F3585B590A
:100E50000134E500EB517D1943466B60338EA342AC
:100E600013D9A50053465B5998464B46002BECD04E
:100E7000A423F3585959084804F068F9404604F08F
:100E80007DF9064804F062F9DFE70020E0BCBA46CD
:100E9000B146A846F0BDC046A8D7011080DB0110BE
:100EA00010B5002805D0831E1B88C01A04F07AF9FB
:100EB00010BD034B034A5A21034809F001FAC0460A
:100EC000B0D70110B4D70110E0D7011010B504005D
:100ED000431E184213D1002817D0002917D0013023
:100EE0000818012104F05AF9002807D0030000195E
:100EF000013064422040C31A821E138010BD054B8E
:100F0000054A3721054809F0DBF90020F6E7002003
:100F1000F4E7C0462CD8011048D80110E0D70110E2
:100F2000F8B504000D0016001F0004F0FDF828605D
:100F3000696013482369984700280DD10020A368F1
:100F400098473060A078E368984738600123E356FB
:100F5000012B08D00020F8BD01000A4804F0F6F883
:100F600006204042F7E72079E3689847079B18601E
:100F7000E368E0789847069B18600020EBE7C046DE
:100F8000CD0E001080D80110F0B585B005000C0022
:100F9000160015E0083C02AB1A00210081C981C28D
:100FA0002200290081C981C2621BD21001A93078B8
:100FB0000870039B0093029B00212800FFF7F1FAC1
:100FC000631B082BE6DC05B0F0BDF0B583B005006F
:100FD0000C00160018E0083C00E0083C61687068EE
:100FE0000DF058F80028F8D12200A54214D2EC46A2
:100FF0006146280088C888C12900200088C888C1A7
:10100000634603CB03C20835716868680DF042F887
:101010000028E0D00835F7E7280003B0F0BDF0B5B0
:1010200083B004000E0015001F00496850680DF0E1
:101030001BF800282DD0796868680DF02BF800287F
:1010400011D1796870680DF025F8002816D06B462C
:101050001A00210021C921C23A0003CA03C406CBE9
:1010600006C703B0F0BD6B461A00210041C941C25A
:101070002A0003CA03C406CB06C5F2E76B461A0072
:10108000210021C921C2320003CA03C406CB06C60F
:10109000E7E7796870680CF0FDFF002810D17968E7
:1010A00068680CF0F7FF002815D06B461A00210085
:1010B00021C921C23A0003CA03C406CB06C7D0E740
:1010C0006B461A00210021C921C2320003CA03C4A1
:1010D00006CB06C6C5E76B461A00210041C941C2CE
:1010E0002A0003CA03C406CB06C5BAE7F0B5C64654
:1010F00000B584B006000D0017009846AB1B802B8E
:1011000030DD002F20D0013FAA1BD310D20FD21800
:101110005210D200B218340008342B00083B694644
:101120004046087021003000FFF779FF4346320047
:1011300029002000FFF749FF040043463A00290038
:10114000FFF7D4FF2500D9E76B4642461A73D3B2A6
:101150002A0029003000FFF798FA03AA290030007E
:10116000FFF712FF04B080BCB846F0BDF0B5CE4624
:10117000474680B589B007004468A000012104F00B
:101180000DF804AB049001221A730594069200280E
:1011900000D192E07B68A34216D10123012B16D126
:1011A00000247B68A34215D9B868604380003B687F
:1011B0009C4660446A46B96806F0AAFFA300049AF8
:1011C0000099D1500134ECE7424B994604E0414B81
:1011D000994601E0002399464B46002B00D06FE072
:1011E0007B68059A934262D1069B012B62D1002352
:1011F000984621E0A000012103F0D0FF00900123D8
:101200006A46137328E0AC00009B9C466444311C82
:1012100020680CF0D0FE20600135019A029B5343F8
:10122000AB42F0D80098002803D06B461B7B002B04
:101230001ED101239C46E0447B68434524D9BC6809
:10124000434663439B003A6894466344002BD1D0E5
:10125000009300236A461373012301930294009BB9
:10126000002B08D043469B00049AD6580025D4E7AB
:1012700003F098FFDDE70098002803D06B461B7B46
:10128000002B11D1144B99464B46002B1BD10498CF
:10129000002803D004AB1B7B002B17D1484609B0B4
:1012A000C0BCB946B046F0BD03F07CFFEAE7094B8D
:1012B0009946E9E7074B9946E6E7074B9946E6E783
:1012C000044B9946E3E7034B9946E0E703F06AFFD6
:1012D000E4E7C04614FCFFFF16FCFFFFFEE7F0B595
:1012E000DE4657464E464546E0B597B0070044688F
:1012F00083685C43631E9946002301930293039322
:1013000004930593002C73D101AA0021059110AB21
:101310001091119103CB03C20EAB01AA190021CA8F
:1013200021C10F9BE418E1171F231A000A4012196C
:10133000521192000E98844662440E92C90E6418AF
:101340001C40641A65D40EAB0F9403AA03CB03C2EE
:101350000198002804D0059B1A1A00210DF076F898
:10136000012398460125AB003A68D3589A462C00D1
:10137000BB689B46190020000AF0AAFB0E005946E4
:1013800020000AF0A5FB7B685E433418A3003A688E
:1013900094466344524619688A461A6063099B0062
:1013A000019A944663441F2121400A930B91012224
:1013B0008A400693079219680A431A60A542D7D15A
:1013C00045466B099B00019A944663441F212940BE
:1013D0000C930D9101228A40089309921B681A42CE
:1013E000C1D001239C46E0444D4516D20135E8E7C3
:1013F00025001F356D09AD00280003F0CBFE45190F
:1014000001AA059512AB12900021139103CB03C2E0
:1014100082E72034043A0E9295E77B68BA687A60D6
:10142000BB60019800280ED001AC03F0BBFE14ABEA
:1014300000211491159103AA21CB21C203AB2200F4
:1014400021CB21C2059117B0F0BCBB46B246A946DC
:10145000A046F0BDF0B5DE464F464646C0B58CB05E
:1014600005000E000392149C6208013290469A42D5
:1014700000D0B7E08C4200D22600A000012103F08A
:101480008DFE08AB089001221A7309920A94002875
:1014900000D185E0B7003A0029000CF0DDFF089B81
:1014A000D819A61BB20000210CF0D0FF202C00D1CF
:1014B00085E0402C00D184E0802C00D183E08023A3
:1014C0005B009C4200D180E00133FF339C4200D19D
:1014D0007DE08023DB009C4200D17AE080231B0169
:1014E0009C4200D177E080235B019C4200D174E0F4
:1014F000089D4346D80003F04DFE834600284DD09A
:1015000007AB0093002300220021200003F058FCC9
:101510008146002805D05A46290003F02DFD0026FB
:1015200007E0584603F03EFE2F4C3AE000202860CA
:101530000136B0452AD9F7005F4400248025ED0527
:1015400038680CF00DFE22002B000BF039FB0490E4
:10155000059178680CF004FE22002B000BF030FBA4
:1015600002000B00049805990AF00AFD0AF034FE07
:10157000041CB500039B9C46654400210CF082FDD1
:101580000028D3D0201C0CF0F5FDD0E7484603F02E
:1015900009FE584603F006FE002402E0124C00E06B
:1015A000114C0898002803D008AB1B7B002B16D1E8
:1015B00020000CB0E0BCBB46B146A846F0BD0B4CC9
:1015C000EFE70A4CEDE7094CEBE7084CE9E7074C7D
:1015D000E7E7064CE5E7054CE3E7044CE1E703F0F9
:1015E000E1FDE5E7024CE3E716FCFFFF08FCFFFF27
:1015F00011FCFFFFF0B5DE4657464E464546E0B5C6
:101600008DB083468A4617001A000393416801296A
:1016100000D0B7E051464968012900D0B4E0BB686A
:10162000012B00D0B2E05168019179684C1E0199FC
:10163000A14200D0ACE092680192934200D0A9E0B0
:10164000524683689268934200D0A5E0A000012131
:1016500003F0A4FD08AB089001221A7309920A94C2
:10166000002800D189E07B685C1EA000012103F006
:1016700095FD0490012304AA137305930694002892
:101680005FD0002301932AE00134A4B225007B68D7
:10169000013B9C421FD23E68A30098464946F05841
:1016A0000CF0E8FC0028EFD00135AD00A859494600
:1016B0000CF0F0FC0028E7D0089C44440299206814
:1016C0000CF07EFC2060049C4444FE2189052068C7
:1016D0000CF076FC2060019B01339BB201935246D3
:1016E000019B926893420AD29B0052461268D258DC
:1016F00091465A461268D35802930024C6E7002444
:10170000039B98460BE0089B585943461B689C4630
:101710006544311C0CF059FC28600134A4B27B688C
:10172000013B9C420FD2A500049B5E590021301C56
:101730000CF092FC0028E6D0002342461268535178
:10174000EBE7164C00E000240498002803D004AB1B
:101750001B7B002B0ED10898002803D008AB1B7B05
:10176000002B0CD120000DB0F0BCBB46B246A94600
:10177000A046F0BD03F016FDEDE7084CEBE703F0E3
:1017800011FDEFE7064CEDE7054CEBE7044CE9E70C
:10179000034CE7E7024CE5E7014CE3E716FCFFFFEB
:1017A00014FCFFFFF0B5DE4657464E464546E0B511
:1017B00099B00400894616009B4622AB1F884568F5
:1017C000012D00D029E24B68012B00D028E27B08D4
:1017D0009846013304938A689A4200D023E27268E3
:1017E000012A00D022E2B268934200D021E20368CD
:1017F000002B00D120E20A68002A00D11FE23268E3
:10180000002A00D11EE282689246002B1ED014935B
:1018100014AB00221A73159553461693149B002B94
:1018200000D1F4E10397A468A7421AD9A4B2A0009A
:10183000012103F0B3FC10AB109001221A73119236
:101840001294002800D1DCE1002319E01000684365
:101850008000012103F0A2FC149014AB01221A7342
:10186000D9E7039BA34202D216973C00DFE73C0076
:10187000DDE79A00FE2189051098815001339BB263
:101880009C42F6D820000CF00FFC59460CF0B3FB3C
:10189000011CFE2080050CF098FB05900024BA4640
:1018A00047461FE020000CF0FAFB80465946FE2018
:1018B00080050CF08AFB051C50460CF0F5FB291C3A
:1018C0000CF099FB011CFE2080050CF07EFB011C36
:1018D000A50033689C46654440460CF08CFB2860AC
:1018E0000134A4B2A742DDD2B846574601210420F4
:1018F00003F054FC0CAB0C9001221A730D920E9263
:10190000002800D177E1159B93423BD10123012BA5
:101910003BD100240EE0169860438000149B9C4647
:10192000604408AA169906F0F3FBA3000C9A0899E4
:10193000D1500134159BA342EDD800239B465B4652
:10194000002B25D00C98002804D00CAB1B7B002B5F
:1019500000D053E11098002804D010AB1B7B002B63
:1019600000D051E11498002804D014AB1B7B002B4D
:1019700000D04FE1584619B0F0BCBB46B246A9466C
:10198000A046F0BDB14B9B46D9E7B04B9B46D6E78E
:10199000159B0D9A934200D0ABE00E9B012B00D01B
:1019A000AAE000239A463B0057469A461FE0A00053
:1019B000012103F0F3FB089008AB01221A7327E022
:1019C000AC00089B9C466444311C20680CF0F3FA80
:1019D00020600135099A0A9B5343AB42F0D808981E
:1019E000002803D008AB1B7B002B1CD10137159BB3
:1019F000BB4200D883E0169C23007B439B00149AD3
:101A000094466344002BD2D0089308AB00221A738B
:101A1000012309930A94089B002B07D0BB000C9A62
:101A2000D6580025D6E703F0BDFBDFE757460898F8
:101A3000002803D008AB1B7B002B57D1844B9B465F
:101A40005B46002B00D07DE7049EF000012103F0EF
:101A5000A5FB0500149B9A46169C7B0801339E4209
:101A600000D096E0039BA34200D23C00039BA3421C
:101A700047D00026002E46D0089608AB00221A73E5
:101A8000012309930A970898002855D0002E43D0C7
:101A9000039A202A62D0402A63D0802A64D080230F
:101AA0005B009A4263D00133FF339A4262D08023B5
:101AB000DB009A4261D080231B019A4260D08023D0
:101AC0005B019A425FD0089E07AB0093002300227F
:101AD0000021380003F074F9041E2AD02A003100D6
:101AE00003F04AFA200003F05DFB27E003F05AFB05
:101AF000A4E7564B9B46A3E7544B9B46A0E75746AB
:101B00009EE75646B6E7B800012103F047FB089070
:101B100008AB01221A73B3E7A600320051460CF05D
:101B20009BFC089B98193A1B920000210CF08EFC3C
:101B3000AEE7474B9B4601E0454B9B460898002883
:101B400003D008AB1B7B002B20D15B46002B23D19D
:101B50000026AA464546059B98462CE03D4B9B46F1
:101B6000ECE73C4B9B46E9E73A4B9B46E6E7394BB3
:101B70009B46E3E7374B9B46E0E7364B9B46DDE76A
:101B8000344B9B46DAE7334B9B46D7E703F00AFB1F
:101B9000DBE7314B9B46D8E7280003F003FBD1E697
:101BA000011C0CF00DFA2060BF0023684A46126841
:101BB000D3510136B6B2B54219D33700F4005444BC
:101BC0002168081C0CF017FA03906168081C0CF0DF
:101BD00012FA011C03980CF0F3F9206000236360F3
:101BE00041460CF008FA2060B542D9D1DCE75046F6
:101BF00003F0D8FAA6E6164B9B46A3E603F0D2FA0A
:101C0000A8E6134B9B46A5E603F0CCFAAAE6104BD8
:101C10009B46A7E603F0C6FAACE60C4B9B46A9E64A
:101C20000A4B9B46A6E6094B9B46A3E6074B9B4601
:101C3000A0E6064B9B469DE6054B9B469AE6044B69
:101C40009B4697E6024B9B4694E6C04614FCFFFF7A
:101C500016FCFFFF08FCFFFF11FCFFFFF0B5DE469E
:101C600057464E464546E0B5A3B0804612900D005B
:101C7000170010921C1C0026FFF731FBFF68FE21A5
:101C80008905381C0CF0E8F900284BD14046426821
:101C900080235B029A4248D28368802149028B42AA
:101CA00046D212A90A849BB24B8402681B924168F7
:101CB000029112A9029808864B861F921EAA391C0F
:101CC0001AA806F0F7F91190119B002B00D0A8E29A
:101CD000109B1F69D549380018F044FC002839D101
:101CE000109B9B69002B26D1002601271298FFF735
:101CF0003DFA1190002800D093E2002F48D1109BAC
:101D00001B6AD80FC0184010431C9A460123099340
:101D10005346099A9B1A13932B689B4600230E93F4
:101D2000D846BDE100231193CEE7C14B1193CBE719
:101D3000BF4B1193C8E7DBB2109A52690292211C83
:101D40001298FEF76BFE1190002800D069E2002681
:101D50000127CBE7B749380018F004FC002815D15B
:101D6000109B9B69002B02D101260127BEE7DBB245
:101D7000109A52690292211C1298FEF7F5FF1190F9
:101D8000002800D04DE201260127AFE70027ADE78C
:101D9000109B1F6A5B69984638000CF080F9414639
:101DA0000CF029F9211C0CF010F9002E11D00CF0C8
:101DB000D7F90022A04B0AF0DAF80AF0BDF9431C6B
:101DC0000993431C01D1012309937F087B1C9A4688
:101DD0009EE70CF0C5F90022974B0AF0D1F80AF003
:101DE000ABF9431C9A460123099391E7059B9800A0
:101DF000012103F0D3F9169016AB01221A736AE1A0
:101E00000121042003F0CAF91A901AAB01221A73B7
:101E10006DE18A4B0D9304E0884B0D9301E0119B1B
:101E20000D930D9B002B00D0EBE143461B689946B8
:101E30000021181C0CF010F9002801D0804B9946A5
:101E400000270026B3461AE0BB00069A9C58211CC6
:101E5000201C0CF0D0F8011C201C0CF0CCF8051C48
:101E6000011C301C0CF0ACF8061C291C201C0CF0CA
:101E7000C2F8011C58460CF0A3F883460137059BB5
:101E80009F42E1D35B46B3461E1C494648460CF0D0
:101E9000B2F849460CF0AFF8041C059F38000CF06E
:101EA000FEF8051C011C58460CF08FF8211C0CF0A4
:101EB0008CF843465860291C301C0CF086F8051C31
:101EC000211C48460CF097F8011C281C0CF07DF8EA
:101ED0005C490CF070F80C2343449B4643469860E1
:101EE00010990A6A03923123CB5C0A9353080B932F
:101EF00001330293544B1E9300231F93BA4211D80F
:101F00000B9B9B00069AD3580F93914601230C9389
:101F10005346099A9A1A9200002158460CF096FAF4
:101F20000D9973E00421029803F038F981461F905F
:101F300000230C9300230F93EAE70399049B980076
:101F4000069B9C4660446B469F897B080133029A3E
:101F50009A4236D1009713004A46FFF77BFA041ED7
:101F60002BD1002653460893B846824635001EE022
:101F700040460CF094F80CF0F3F802000B0000203F
:101F800032490AF006F806000F00AC004C44216804
:101F9000081C0CF030F80CF0E3F802000B003000E5
:101FA00039000AF014F80AF017F920600135029B95
:101FB000AB42DDD85446089B9A46002C48D1099F75
:101FC00005E01E4CF9E733682B60013401375745B3
:101FD0000BD2A5005D44BE004E44316828680CF069
:101FE00043F80028EFD12E00EDE70A9B002B1AD012
:101FF0000C9B002B06D00B9B9B00069A0F99D1508F
:1020000000230C9304990B9B9C466144059B8B42D7
:102010001FDD0491039A94468C44624607926345FF
:102020008BD2591A8AE70799F0E7C046B4D8011055
:102030000CFCFFFFB8D801100000E03F14FCFFFFCC
:10204000FFE6DB2E00004040A55100100000F03FED
:102050000D941F98002801D003F0A4F800231F93CB
:102060000D9B002B00D0CCE03033109AD35C002BBA
:102070005CD1139B9B005B4498461A98002804D0BF
:102080001AAB1B7B002B00D0B5E01698002804D0BB
:1020900016AB1B7B002B00D0B0E00E9B01330E93E0
:1020A000129B5A68029211000E9A914200D8B8E031
:1020B000196802919968059113004B439B00029A9D
:1020C00094469C4463460693002B00D18EE61693FB
:1020D00016AB00221A7301231793059B18934346EE
:1020E000002B00D18CE61A931AAB00221A7301233D
:1020F0001B931C93179A9A4200D08AE6012B00D0BA
:102100008AE60024179BA34200D888E6189860430B
:102110008000169B9C4660441EAA189906F015F88C
:10212000A3001A9A1E99D1500134EBE70025139EA3
:102130005F4600E00135AE420AD9AC003C190021EF
:1021400020680BF089FF0028F4D03D4B2360F1E7B5
:10215000BB46002F39D01E971EAB00221A73139B6B
:102160001F930123209300261F9A209B5343B342C1
:1021700035D9B5001E9B9C4665442B685800400825
:1021800015A91BF069FA041C2E490BF034FF2E49E7
:102190000BF011FF011C201C0BF02DFF2B490BF045
:1021A0000FFF011C201C0BF026FF29490BF003FF39
:1021B000041C15980BF078FF211C0BF001FF25493A
:1021C0000BF019FF28600136CEE7139B9800012120
:1021D00002F0E4FF1E901EAB01221A73BFE71E98A7
:1021E000002800D145E71EAB1B7B002B00D140E748
:1021F00002F0D8FF3DE702F0D5FF46E702F0D2FF3C
:102200004BE71A98002803D01AAB1B7B002B10D188
:102210001698002803D016AB1B7B002B0CD10D9B0E
:102220001193119823B0F0BCBB46B246A946A04614
:10223000F0BD02F0B7FFEBE702F0B4FFEFE7C046F6
:10224000FFE6DB2EA8A19D3FF5CA8340FBB3C0404B
:10225000E09248409B209A3EF8B504000D00826849
:1022600043685A43097803294AD0092923D0012910
:1022700005D0384802F06AFF0D204042F8BDAB6936
:10228000990891420CD10022A36861684B439342A4
:1022900059D993002168C9586868C1500132F3E7E1
:1022A000D81703210140C91889102B4802F04EFFAE
:1022B00018204042E2E7A96991421BD10026A36899
:1022C00062685343B34240D9B3002268D058E968EA
:1022D0000BF07BFE0BF0E6FF071C28690BF0E4FE19
:1022E000391C0BF06DFE6B689F190BF0FFFE387008
:1022F0000136E4E7184802F029FF18204042BDE704
:10230000A969914219D10026A36862685343B34278
:102310001DD9B3002268D058E9680BF056FE071C9F
:1023200028690BF0C1FE391C0BF04AFE6B689F193F
:102330000BF00EFF38700136E6E7074802F006FFA3
:10234000182040429AE7002098E7002096E70020F6
:1023500094E7C04604D90110C0D80110F0B5C646B4
:1023600000B584B004000D000AAB40CB1F784023B9
:10237000C35C002B71D04823C156C35C052B66D8C3
:102380008B00424AD3589F462B78092B07D06A68A6
:10239000036D0093036D3100FEF744F865E0076DAF
:1023A00028690BF081FE031C6A6802970197E968AF
:1023B000009131002000FEF738F856E0344802F072
:1023C000C5FE0A20404250E0052910D00627297892
:1023D00009290ED003291DD001292CD16B68E26C8C
:1023E00000923A0031002000FEF722F83DE0052778
:1023F000EDE728696B689846E36C0293EB680193FC
:102400000BF052FE009043463A0031002000FEF7E8
:102410005DF82AE028696B689846E36C0293EB68E4
:1024200001930BF041FE009043463A00310020003A
:10243000FEF74FF819E0174802F088FE0A204042E4
:1024400013E0154802F082FE0A2040420DE01348D6
:1024500002F07CFE0A20404207E00B78092B08D0EE
:102460004A683B003100FEF7E5FC04B080BCB8468A
:10247000F0BD08690BF018FE031C6A680197E96853
:10248000009131002000FEF791FCEEE720DA011008
:1024900028D9011080D90110B8D90110ECD9011048
:1024A000F0B583B0040016001F000DAB1D789C230F
:1024B000C358984700282FD102F036FE801BB9413F
:1024C0000C9BF03318605960FA229200002309F047
:1024D00025FB0100E0230C9AD050002D12D101956C
:1024E0000C9B00930A9B099A08992000FFF736FF7E
:1024F0000500A023E3580A489847002D06D028007D
:1025000003B0F0BD074802F021FEE8E702F00AFE42
:10251000831CF4D10500F2E703256D42EFE7C046C6
:10252000A10E001038DA0110F0B5CE4600B598B013
:1025300007000E0015000793010011A8FDF77BFFAF
:1025400002F0F2FD0A900B9108AB204A089200229B
:10255000099202930EAB01930DAB00930FAB10AA3F
:102560000AA911A8FEF7DCFC041E0BD0099800286C
:1025700001D0089B984700230993200018B080BC25
:10258000B946F0BD099A914610993000FFF764FEF4
:10259000041EEBD1079B059304954B4603930E9BBA
:1025A00002930D9B01930F9B00930A9A0B9B38009B
:1025B000FFF776FF040002F0B7FD0A9A0B9B801A22
:1025C0009941F03528606960D0E7C046A10E00103F
:1025D00010B5FFF7A9FF041E01D0200010BD02F0C6
:1025E000A1FD831CF9D10400F7E7000010B5040039
:1025F000A82202490BF030FF200010BDE4DB0110DF
:1026000030B585B0FA20800006F0ACFE0F226A4497
:102610000D231370154D0C3B00931C2128000FF067
:10262000B1F803AC00230093013322001C212800E1
:102630000FF0B4F823782A2B06D00D480CF0C8F818
:102640000C4806F08FFEF8E72A236A461372293BEE
:1026500053720093013302AA1C2104480FF092F830
:10266000322006F07FFE05B030BDC046881600203F
:1026700058DA011088130000F0B5CE46474680B501
:10268000A5B00CF0B1F8734973480FF04FF803216F
:102690000E2007F0B5FD03210F2007F0B1FD002249
:1026A00001210E2007F0C4FD002201210F2007F0B8
:1026B000BFFDFFF7A5FF87236B4400221A7000239C
:1026C000039304AA1C23002B03DB002102C2013B5D
:1026D000F9E7624806F05AF80023984634E00023F0
:1026E000984699E05E4948460BF06FFC061C5C4931
:1026F000201C0BF06AFC051C5949381C0BF065FCCA
:10270000071C002312E0D81C564A81008C589900FF
:102710008C501C1D591CA400A45889008C50591DB4
:102720000233890089589B00995003008C22920043
:102730009342E8D94B4B4C4A9E504C4A9D504C4AD0
:102740009F500A2006F00EFE434D0123009387227E
:102750006A441C2128000FF015F822AE00230093D4
:10276000063332001C2128000FF018F870780002A0
:1027700000B233781843F7783F023FB2B3781F4373
:1027800075792D022DB233791D4309F099FC394A30
:10279000394B09F01CFC0022384B09F018FC0022D0
:1027A000374B09F014FC09F017FD041C380009F040
:1027B00087FC304A304B09F00AFC00222F4B09F00D
:1027C00006FC00222E4B09F002FC09F005FD061C58
:1027D000280009F075FC274A274B09F0F8FB002276
:1027E000264B09F0F4FB0022254B09F0F0FB09F021
:1027F000F3FC03AA43469B009C50434601339B00D5
:102800009E50434602339B00D05043461A2B00DDB6
:1028100065E703239C46E044002500273C1CB9469D
:102820001B2D00DD5EE703AEAB00995948460BF067
:10283000C7FB81466B1C9B009959201C0BF0C0FB09
:10284000041CAB1C9B009959381C0BF0B9FB071CEE
:102850000335E5E7400D03008816002045330010DE
:102860000000204140300020C4080000C8080000DB
:10287000CC0800001F85EB51B89E23400000503F5C
:102880000000B03F10B584B00391029201938368B9
:10289000002B06D0C46801AB02AA03A9A04704B06C
:1028A00010BDFEF71BFD0000F0B5DE4657464E4654
:1028B0004546E0B58FB00600059191460AAA110081
:1028C00031CB31C11B680B601800BD4917F04AFEBF
:1028D000002808D101230093059B1B690493002362
:1028E000039398463BE103230093F5E7049B9A4644
:1028F00042E1002802D00B7B002B01D1B14858E106
:1029000002F050FCFAE7736E9B46AF49181C0BF0BF
:10291000A3FB002839D0B36E9846C3210906181CC2
:102920000BF09AFB002830D0200CFF231840220A1D
:102930001A409346234001930BF0B6FB41460BF03F
:102940003FFB0BF0D3FB7A1C90464A461268D055E9
:10295000B46E58460BF0A8FB211C0BF031FB0BF0BA
:10296000C5FBBC1C4A46126841465054B26E9046A4
:1029700001980BF099FB41460BF022FB0BF0B6FBE4
:102980004B461B681855033796E0200CFF239846EA
:1029900018400BF084FB8D490BF017FB0190200AC7
:1029A000434618400BF07BFB88490BF00EFB02906E
:1029B0004346234018000BF072FB84490BF005FBE3
:1029C0008046594601980BF000FB0BF06BFC011C94
:1029D000B06E0BF0F5FA0BF089FB7B1C9B464B4667
:1029E0001B68D855716E02980BF0EFFA0BF05AFC89
:1029F000011CB06E0BF0E4FA0BF078FBBC1C4B46EC
:102A00001B685A469854716E40460BF0DEFA0BF084
:102A100049FC011CB06E0BF0D3FA0BF067FB4B4680
:102A20001B681855033747E0802040424B461B681F
:102A3000D855013740E0200CFF23984618400BF092
:102A40002EFB62490BF0C1FA0190200A4346184060
:102A50000BF025FB5D490BF0B8FA0290434623408A
:102A600018000BF01CFB59490BF0AFFA041C584935
:102A700001980BF0C0FA8046564902980BF0BBFA59
:102A8000011C40460BF09CFA80465349201C0BF079
:102A9000B2FA011C40460BF093FA59460BF095FA36
:102AA0000BF000FC011CB06E0BF08AFA0BF01EFB61
:102AB0004B461B68D8550137013555453DD2AB0013
:102AC000069A98580BF044FB0400009B032B00D19E
:102AD00019E7736E9B463C49181C0BF0BDFA0028A1
:102AE000A9D0B36E9846C3210906181C0BF0B4FA9E
:102AF0000028A0D0210CFF200140220A02402040E3
:102B0000364C4C43364B5A43A21803011B1A1C0186
:102B100024186001001B101800140BF0C5FA414680
:102B20000BF04EFA0BF0E2FA0300803300DA7BE799
:102B30007F2800DC7AE77F2078E7B846049B52467E
:102B40009B1A04930698002803D006AB1B7B002B2E
:102B50002BD1039B8022D200944663440393059BB0
:102B60001B690193039A934222D98023DB00049AC4
:102B70009A4200D8BAE69A460C9C504660438000C0
:102B8000012102F00BFB03000690012206A90A7343
:102B9000524607920894002800D1AAE603990598A6
:102BA000FFF770FE0025474687E702F0FBFAD0E703
:102BB00000200FB0F0BCBB46B246A946A046F0BD0F
:102BC00080DA011016FCFFFF8180803B00007F430C
:102BD0008716993EA245163FD578E93D8B4C0000FB
:102BE00045960000F0B59FB007000E001500099350
:102BF000010017A8FDF71FFC8022520000212800C9
:102C00000BF024FC0EAB584A0E9200220F92029356
:102C100011AB019310AB009312AB13AA14A917A820
:102C2000FEF77EF9041E71D1139B1B78092B02D08D
:102C3000032B00D094E002F077FA069007913C69EC
:102C4000139B5B68002B4CD00A930AAB00221A73CB
:102C500001230B930C94454B9B687A6B00920AAA54
:102C600031003800FFF720FE011E43D102F05AFA6E
:102C70000400831C43D002F057FA069B079CC01A3D
:102C8000A1412B00E83318605960FA22920000231A
:102C900008F044FF0100DC23E850099B002B3FD1E2
:102CA00002F042FA02000B00149015910999059167
:102CB00004950F990391119902911099019112991C
:102CC00000913800FFF7ECFB041E18D102F02CFA3B
:102CD000149A159B801A99412A00F03210605160B5
:102CE0000DE00121200002F059FA0A900AAB0122FE
:102CF0001A73ADE71E4802F029FA052464420A98C7
:102D0000002803D00AAB1B7B002B26D10F9800288C
:102D100001D00E9B984700230F9320001FB0F0BDF9
:102D2000144802F013FA00240C9BA34211D90A9B09
:102D30001857139B1A69801ADE680BF0B5F9311C1D
:102D40000BF059F902F01AFA0B4802F0FFF90134BE
:102D5000EAE70A4802F0FAF9A2E702F023FAD5E717
:102D600009246442D2E7C046A10E00104814002096
:102D70008CDA0110B4DA0110B81D021080DB0110EA
:102D8000F8B506000C0017001D00FDF773FB0028C6
:102D900000D0F8BD80225200002138000BF056FB15
:102DA0002B003A0021003000FFF71CFFF1E7000084
:102DB000F0B5DE4657464E464546E0B58DB08046F6
:102DC0008B4608AB190031CA31C112680A60100085
:102DD000584917F0C7FB00280BD1012399464346F9
:102DE0001B6903930023029300274346C846994674
:102DF00072E003239946F2E7039B9A4677E00028A6
:102E000002D00B7B002B01D14B488CE002F0CAF9B9
:102E1000FAE77A1CBB00594609680098C850BB1CE9
:102E2000920059460968019888509B0003375A461A
:102E30001268D450013656453DD2B300049A9858D2
:102E40000BF086F90500000CFF2420400BF027F959
:102E50003A490BF0BAF80090280A20400BF01FF90D
:102E600036490BF0B2F80190200028400BF017F91A
:102E700032490BF0AAF8041C4346032BC9D0304951
:102E800000980BF0B8F8051C2E4901980BF0B3F828
:102E9000011C281C0BF094F8051C2B49201C0BF07E
:102EA000AAF8011C281C0BF08BF8BB005A461268CC
:102EB000D0500137BEE7039B52469B1A03930498F8
:102EC000002803D004AB1B7B002B28D1029B80225F
:102ED000D2009446634402934B461B69029A934284
:102EE00020D98023DB00039A9A4285D99A460A9C0E
:102EF000504660438000012102F050F90300049025
:102F0000012204A90A73524605920694002800D1B2
:102F100075E702994846FFF7B5FC00268BE702F0FB
:102F200041F9D3E700200DB0F0BCBB46B246A9463C
:102F3000A046F0BD80DA011016FCFFFF00007F43C1
:102F40008716993EA245163FD578E93DF0B5D6469D
:102F50004F464646C0B50400086817681B68984687
:102F60002568AE68310008F0B3FDEB689C696043EA
:102F700081463100380008F0ABFD604382464F4681
:102F800000234A465244BA421BD9002401E00134CE
:102F90003300AA68A24210D96A68115D5E1C9B00CA
:102FA0004344791801222868FFF76CFC0028EED012
:102FB000E0BCBA46B146A846F0BDEA689269BF18BF
:102FC000DFE70020F4E70000002383600160024B8C
:102FD000C360024B83607047F5060010D9040010EF
:102FE000F0B5DE4657464E464546E0B583B007008D
:102FF000140001230093436802689E1AF6102A4DBC
:103000000122B54223D00196964223D301AA126829
:10301000B6183A689B1ADB109E421DD380235B05CD
:103020009E421BD23B689A467B6898460D005346E9
:10303000CB1A9B46002E13D0F00002F0ABF881466D
:10304000594649440CCC0CC14C4653460FE0174836
:103050000EF08CFC6A46DAE7134EE3E7124EE1E726
:1030600000239946ECE7220003CB03C21400AB42D5
:10307000F9D1083403E0230006CD06C31C00A8459F
:10308000F9D15346002B02D0504602F08BF84B4644
:103090003B607C60F6004E44BE6003B0F0BCBB46B3
:1030A000B246A946A046F0BDFFFFFF0FC8DA0110E7
:1030B000002383600160024BC360024B8360704752
:1030C0004D2F0010F9040010F0B5DE4657464E466D
:1030D0004546E0B5A1B004008A4693461D0003931F
:1030E000FDF7C8F900280ED12B005A4651462000A2
:1030F000FFF746FE0600300021B0F0BCBB46B246EA
:10310000A946A046F0BD80225200002158460BF08F
:103110009DF92569A800012102F040F818AB18902C
:1031200001221A7319921A9501F0FEFF0090019185
:1031300000250022D0462BE0744802F007F805264F
:103140007642BDE0B000012102F028F8069006ABFF
:1031500001221A733AE0404675E001006C4801F024
:10316000F5FF05267642159B002B03D0032213A9F9
:10317000080098470698002800D1A1E006AB1B7B09
:10318000002B00D19CE002F00DF899E001353A00E7
:10319000A36BAB4274D9AB005B199B00E16B8C460F
:1031A00063440AA80100C1CBC1C141CB41C10A9E01
:1031B000B71823699F42BFD89200189B9C4662446F
:1031C000002ABFD0069206AB00221A730123079390
:1031D00008960D9B02930E9E43460F93029B1093FD
:1031E00011961294002315930B9B9A46A1698E4267
:1031F000B1D00F9B186908F06BFC464317961CAEC4
:103200000FA93000FFF754FF04AB994608223100A4
:1032100018000BF021F913AB320003CB03C213AB40
:103220004A4603CA03C31E9B159A1E9215931F9B01
:10323000169A1F9216931E9B002B03D00322310077
:103240003000984713A8636B0C9A06A9D047002852
:1032500083D101F067FF831C10D0159B002B03D096
:10326000032213A908009847069800288ED006ABC1
:103270001B7B002B8AD001F095FF87E7060072E7E1
:1032800001F052FF009A019B801A99415B46E83396
:1032900018605960FA229200002308F03FFC0100F8
:1032A000DC235A46D050039B002B15D1039B002BE7
:1032B00027D1039B5A4618A92000FFF789F9060079
:1032C0001898002800D116E718AB1B7B002B00D103
:1032D00011E701F067FF0EE70E4801F037FF002508
:1032E0001A9BAB4209D9AB00189AD05801F046FF9F
:1032F000094801F02BFF0135F2E7084801F026FFED
:10330000D4E7074801F022FFD3E7C046E4DA011012
:103310008CDA0110B4DA0110B81D021080DB011044
:1033200010DB011070B5AAB004000D00160068464D
:10333000FFF75CF933002A0021006846FFF7C4FE5E
:103340002AB070BDF0B5C64600B5CEB0002006F07C
:1033500089FF012006F086FFD0231B0601225A6256
:1033600001325A6287E0634801F0F0FEBCE00AAF28
:10337000651CEB009846FE1870680AF0F1FE02002A
:103380000B004146C9595C4801F0E0FE7268A40098
:1033900001ABE2502C00032CE9D9019C029D291CB1
:1033A000201C0AF077FE002811D00399201C0AF097
:1033B00071FE00280BD00499201C0AF06BFE002837
:1033C00005D0D0231B0601229A6101329A61291C83
:1033D000201C0AF049FE002811D00399281C0AF08D
:1033E00059FE00280BD00499281C0AF053FE00282F
:1033F00005D0D0231B0601225A6101329A61039E37
:10340000311C201C0AF030FE002811D0311C281C71
:103410000AF02AFE00280BD00499301C0AF03AFE6C
:10342000002805D0D0231B0601229A6101325A617F
:10343000049F391C201C0AF017FE002811D0391CEB
:10344000281C0AF011FE00280BD0391C301C0AF091
:103450000BFE002805D0D0231B0601225A61013241
:103460005A610A2005F07EFF079B002B03D0032240
:1034700005A9080098471022002101A80AF0E6FFDC
:1034800005AC002307938D239B0009934AAD1B498C
:103490002800FFF799FD0AAE0822290030000AF043
:1034A000DBFF2B00220003CA03C30CCE0CC44C9BD1
:1034B000079A4C9207934D9B089A4D9208934C9B08
:1034C000002B03D0032229002800984780225200B5
:1034D00000210AA80AF0BAFF00220AA905A8FFF7EE
:1034E00021FF011E00D03EE7054801F02FFE002419
:1034F00051E7C04624DB011054DB011040300020AE
:1035000080DB01107047F0B5DE4657464E46454613
:10351000E0B583B0070081468846884232D0040077
:10352000083408E05846FFF7EDFF6B464A4603CBE8
:1035300003C22C0008342500444523D07968606814
:103540000AF0A8FD002818D06B46220003CA03C366
:10355000924693463800FFF7D5FF06002000FFF79C
:10356000D1FF04005046FFF7CDFFA21BA642D9D0E1
:10357000801A310016F046FDD4E700212000FCF748
:10358000CBFFD6E703B0F0BCBB46B246A946A04687
:10359000F0BD70B50D000B1A802B0DDD04008034DA
:1035A0002100FFF7B0FF04E000212000FCF7B4FF8A
:1035B0000834AC42F8D170BDFFF7A5FFFBE700006F
:1035C000F0B5DE4657464E464546E0B591B0070099
:1035D0000D0000931AAB1E884368012B00D029E12F
:1035E0008B68022B00D027E14B68002B08D1002408
:1035F000200011B0F0BCBB46B246A946A046F0BDC3
:10360000111CFE2080050AF0E0FC8146BC68A00089
:10361000012101F0C3FD80460CAB0C9001221A730E
:103620000D920E94002800D102E1494648460AF066
:10363000C7FC011CFE2080050AF0C7FC019073083E
:10364000994638D04246002A37D0012B1CD001239E
:103650005B424B449B4618000AF021FD011C019877
:103660000AF0B3FC82460024A34511D920000AF0D9
:1036700016FD51460AF0BFFCA600464400210AF0A0
:103680009FFC30600134EFE700231360002406E064
:103690006A4B4B449B0042460199D1500024002CB8
:1036A0000DD00C980028A3D00CAB1B7B002B9FD017
:1036B00001F078FD9CE7624CF1E7614CEFE76B6845
:1036C0009800C4186400C018C000012101F066FD14
:1036D00008AB089001221A7309940A92002800D1BD
:1036E00099E0162302AA94466344002208A93800F0
:1036F000FCF70CFE041E00D08EE00023049305931B
:10370000069300260CE00599069B99422ED002AB49
:1037100005CB05C1059B0193083305930136F6B22D
:10372000162302AA944663441B889E4223DAB30000
:10373000089A90469844434618680AF009FD8000AC
:103740000C9BC35802933B689946434618680AF09D
:10375000FFFC80004B46C058039000990AF084FC9F
:103760000028D0D0002302930393CCE702AA04A838
:10377000FFF736FCD2E7049E059FBE4211D0B81B6E
:10378000C01008F04BF91F22121A5200002398466D
:1037900039003000FDF7AAFC424639003000FFF73F
:1037A000F8FE059B049A9E1AF61004E002AA04A8EB
:1037B000FFF716FC01366B68B3420ED90023029363
:1037C00003930599069B9942F0D002AB05CB05C146
:1037D000059B009308330593ECE700226B68934246
:1037E00013D9D100AB6853439B00049840582E680E
:1037F000F050049B9C466144AB68534301339B00EB
:1038000049682868C1500132E8E70498002803D0CD
:1038100001F0C8FC00E00B4C0898002800D140E7FC
:1038200008AB1B7B002B00D13BE701F0BBFC38E76A
:10383000044C36E7044CDBE6034CD9E6FFFFFF3FC0
:1038400010FCFFFF16FCFFFF14FCFFFFF0B5DE4687
:1038500057464E464546E0B5A9B080460F00059252
:103860001C0032AB40CB1B789A4634AB1B88994680
:1038700035AB1B780693379A93464D684268AA4247
:1038800000D03EE281685A4652685B000133002A4C
:1038900001D0D318013B994200D035E25B469B68CA
:1038A0000793012B00D032E23800FDF75FFC049053
:1038B00000284FD1012C28D0022C31D0A8000121A2
:1038C00001F06CFC24AB249001221A7325952692FA
:1038D000002800D10FE27B68AB422CD10123012BE1
:1038E00040D100247B68A34227D9B8686043800098
:1038F0003B689C4660441CAAB96804F026FCA300FF
:10390000249A1C99D1500134ECE75346321C059996
:103910003800FDF783F80028D0D0C84B049319E095
:103920005346321C05993800FDF71EFA0028C5D011
:10393000C24B04930EE0C14B0493049B002B14D0A4
:10394000BE4B04932498002804D024AB1B7B002B8F
:1039500000D0D3E1049829B0F0BCBB46B246A946DA
:10396000A046F0BDB54B0493E7E7069B5C00200042
:1039700068438000012101F011FC20AB209001225E
:103980001A7321952294002800D1B1E100239A46B0
:103990003B0057469A4660E0A000012101F0FEFB83
:1039A000089008AB01221A736BE0129B03934B4300
:1039B0009B00109A9858621CA300F050129B4B4336
:1039C00001339B0010981B5892000234B350013110
:1039D000119B8B42E9D800250BE01E9B6B439B009B
:1039E0001C9A985896490AF0F0FAA300F050013555
:1039F00001341D9BAB42F0D81C98002804D01CABAE
:103A00001B7B002B00D0F9E01898002804D018ABDD
:103A10001B7B002B00D0F4E01498002804D014ABDA
:103A20001B7B002B00D0EFE01098002804D010ABD7
:103A30001B7B002B00D0EAE00C98002804D00CABD4
:103A40001B7B002B00D0E5E00898002804D008ABD1
:103A50001B7B002B00D0E0E0013753465B68BB4284
:103A600000D816E153469C683B0063439B005246D6
:103A7000126894466344002B8ED0089308AB002252
:103A80001A73012309930A94089B002B00D129E1A2
:103A90004B465C080134A6000121300001F07EFB9A
:103AA00002000CAB0C90012119730D910E940028AB
:103AB00000D10EE14B46009323000A990898FDF7C8
:103AC000C9FC002800D007E148460AF0E8FA011CCA
:103AD0008020C0050AF079FA051CFE2189050AF04C
:103AE000BBFA002825D10D9A80235B029A4220D28E
:103AF0000E9B802149028B421BD206A9483009182F
:103B00000A809BB206AA4A21521813800C9A199275
:103B10000D9A111C06A858228018018006AA5A2165
:103B2000521813800C9B1D931CAA291C18A804F082
:103B3000C1FA069DE800012101F030FB10AB1090A6
:103B400001221A73119501321292002800D1B7E0B8
:103B50004B460093369B059D2A1C10A90CA8FFF725
:103B60002FFD002800D0AEE00121300001F016FB4F
:103B700014AB149001221A7315921694002800D1E8
:103B800098E00121300001F009FB18AB18900122E8
:103B90001A7319921A94002856D04B4600932B1C86
:103BA00018AA14A908A8FDF7FDFD002800D07CE0A4
:103BB0005A465268541EA000012101F0EFFA1CABD6
:103BC0001C9001221A731D941E92002828D0009583
:103BD0001CAB5A4618A914A8FDF70CFD00282BD1E0
:103BE00043469E687E43B6001B689C466644BB0005
:103BF000249A9B583360079C0021E9E601F0D2FA31
:103C000002E701F0CFFA07E701F0CCFA0CE701F088
:103C1000C9FA11E701F0C6FA16E701F0C3FA1BE78B
:103C2000084B04931C98002810D01CAB1B7B002B66
:103C30000CD001F0B7FA09E00490F3E714FCFFFFA1
:103C40000000204116FCFFFF324B04931898002817
:103C500003D018AB1B7B002B29D11498002803D06C
:103C600014AB1B7B002B28D11098002803D010AB7D
:103C70001B7B002B2AD10C98002803D00CAB1B7B9C
:103C8000002B2CD10898002803D008AB1B7B002BFD
:103C90002BD12098002800D154E620AB1B7B002BB1
:103CA00000D14FE601F07EFA4CE60490CEE701F039
:103CB00079FAD2E7174B0493CFE701F073FAD3E711
:103CC000144B0493D0E7144B0493CDE701F06AFA48
:103CD000D1E7104B0493CEE70F4B0493CBE701F0F1
:103CE00061FACFE70B4B0493CCE701F05BFAD0E726
:103CF000084B0493CDE7074B049323E601F052FAF7
:103D000028E6054B049325E6034B049322E6024B79
:103D100004931FE616FCFFFF14FCFFFFF0B5DE4620
:103D200057464E464546E0B5B5B0040089461600F4
:103D30000793D568FE218905281C0AF08DF9002813
:103D400000D082E0626880235B029A427FD2A3683F
:103D5000802149028B427CD202A90A849BB24B8407
:103D600022680B92616802A8018543850D920CAA16
:103D7000291C0AA804F09EF90500002D6BD12368C8
:103D80009B46A368984667687B439B009A4601213F
:103D9000180001F003FA0CAB0C9001221A73424692
:103DA0000D920E97002868D080235B02984566DA52
:103DB0009F4266DABFB202AB1F8393B202AA53835B
:103DC0005A46099202AA138457840B900AA908A89C
:103DD00004F082F900284AD005000C98002803D08E
:103DE0000CAB1B7B002B4ED1002D07D16368A26862
:103DF0001204120C62601B041B0CA360002D45D141
:103E000080200121400001F0C9F930AB309001223F
:103E10001A73402131913292002310937B3200219A
:103E200011A80AF013FBF56A280016F0DFFB020068
:103E30007F2830D9514D3098002810D030AB1B7BF3
:103E4000002B0CD001F0AEF909E0002595E74C4DB0
:103E500093E74B4D91E729004A4801F077F9280094
:103E600035B0F0BCBB46B246A946A046F0BD5246AE
:103E70000C9958460AF0F0FAAFE7434DADE7404DD4
:103E8000ABE73F4DA9E701F08DF9ADE729003F48C9
:103E900001F05CF9E3E7290010A80AF0DDFA10ADA3
:103EA000002714E0280015F0ABFA08F095F97A1C09
:103EB000BF00309BD8512B782C2B03D001352B78A9
:103EC000002BF8D12B78002B08D001351700002DDE
:103ED00005D02B78202BE5D10135FAE71700319773
:103EE000736A5B0001339846002F02D047447B1E63
:103EF00098464B465A689B685A434346B1684B43C1
:103F00009A4239D14B4642469A60B2685A60356946
:103F10001F49280016F026FB002807D01D4928005D
:103F200016F020FB002820D1022300E0012330AA54
:103F30000592B26A0492726AD2B20392328C0292F1
:103F4000327E019272690092079A21004846FFF77B
:103F50007DFC051E0BD1B76843467B431F004B46D3
:103F60009F6001234A46536065E70023DFE70100B5
:103F7000094801F0EBF85EE7084D5CE710FCFFFF35
:103F80000CFCFFFF60DB011016FCFFFF84DB01105F
:103F9000B4D80110B8D80110ACDB011014FCFFFF3D
:103FA000F0B5CE46474680B585B00500884614007A
:103FB000994697683900006907F08AFD0600784342
:103FC0008000012101F0EAF8030000900122694617
:103FD0000A7301960297002829D02A690021280037
:103FE000FEF750FC1549E06916F0BCFA002820D114
:103FF000A388012B13D04B46220041466846FDF7AB
:104000002DFE04000098002803D06B461B7B002B7C
:1040100011D1200005B0C0BCB946B046F0BD4B463A
:10402000220041466846FFF779FE0400EAE7044CA7
:10403000E8E7044CE6E701F0B5F8EAE7E0DB011059
:1040400016FCFFFF0AFCFFFFF0B5DE4657464E4662
:104050004546E0B585B00400019199460932FF322A
:104060001700DD0045192B689A463B689846191CD5
:10407000504609F0C0FF061C6B687A689346111C15
:104080000093181C09F0B7FF011C301C09F093FFC6
:10409000061C02905946504609F0ADFF8246009931
:1040A000404609F0A8FF011C504609F089FF8046F0
:1040B0000390019BDB00FF18311C206809F07BFF97
:1040C00028604146606809F076FF6860311C20680E
:1040D00009F076FF20604146606809F071FF60607A
:1040E0000835083401235B429C46E1444B46002BD3
:1040F000B9D105B0F0BCBB46B246A946A046F0BD5A
:10410000F0B5DE4657464E464546E0B59BB0050045
:104110000C910D920293842149008C46624493468F
:104120000793009201921FE04146089B9946181C94
:1041300009F041FF52461060391C099E301C09F0FD
:104140003FFF524650604146484609F039FF206023
:10415000391C301C09F02FFF60600835079B013BBC
:104160000793002B00D1FAE0029BDB009A46AA4499
:10417000524617685A461468211C381C09F03BFF48
:104180008146524656685A4652689046111C301C69
:1041900009F031FF011C484609F00DFF03900E9015
:1041A0004146381C09F027FF071C311C201C09F070
:1041B00022FF011C381C09F003FF0A900F90029B9C
:1041C0001E01AE1930688046019A1468211C09F05E
:1041D00012FF04907768019A51688946381C09F0EB
:1041E0000AFF011C049809F0E6FE0490109049466D
:1041F000404609F000FF8046391C201C09F0FBFEF8
:10420000011C404609F0DCFE05901190029B5C0009
:104210009C466444E4002C192768009B186880467B
:10422000011C0697381C09F0E6FE071C63689946D6
:10423000009B5B680893191C484609F0DCFE011CD2
:10424000381C09F0B8FE071C12900899069809F06E
:10425000D2FE06904946404609F0CDFE011C069864
:1042600009F0AEFE069013902B6898460499181C2E
:1042700009F0A1FE089018906B6899460599181CE2
:1042800009F099FE099019904146049809F098FEAA
:104290000B9028604946059809F092FE6860391C29
:1042A000039809F08DFE0490149006990A9B984695
:1042B000181C09F085FE81461590391C039809F0F9
:1042C0007AFE071C16900699404609F074FE804657
:1042D000179004990B9809F06EFE306049466868A3
:1042E00009F069FE70600C9AD3009B441301019899
:1042F00084469C4460460190530094466344DB002E
:10430000009A94469C44624600920499286809F0F9
:1043100057FE28604946686809F052FE68600D9AA9
:1043200052680392002A00D0FEE64146089B994657
:10433000181C09F045FE53461860391C099E301CB4
:1043400009F039FE534658604146484609F033FEAD
:104350002060391C301C09F033FE6060FDE61BB0A4
:10436000F0BCBB46B246A946A046F0BDF0B5DE465D
:1043700057464E464546E0B595B0070007911800F0
:1043800005930B00434308A92133DB00D31830CB3E
:1043900030C184235B009A469244D346049053462E
:1043A0000293059BDC003C19226891465A46166828
:1043B000311C484609F01FFE051C626890465A46AB
:1043C00052689246111C404609F015FE011C281C3B
:1043D00009F0F1FD051C0C905146484609F00BFE12
:1043E00081464146301C09F006FE011C484609F092
:1043F000E7FD00900D90059B1B019946B9444B4683
:104400001B689A46029B19688846504609F0F3FDDE
:10441000061C49464868029B59680691039009F0BA
:10442000EAFD011C301C09F0C6FD061C0E90069921
:10443000504609F0E0FD82460399404609F0DBFD55
:10444000011C504609F0BCFD80460F90311C281C11
:1044500009F0B6FD824610904146009809F0B0FD83
:1044600003901190311C281C09F0A5FD051C0A9031
:104470004146009809F09FFD80460B900798C300C5
:104480009B440301029A94469C4463460293386815
:1044900009F066FE00900191504609F061FE00228D
:1044A0002D4B07F094FD02000B000098019907F0D6
:1044B0005EFD07F091FE2060786809F051FE0090E3
:1044C0000191039809F04CFE0022234B07F07FFD79
:1044D00002000B000098019907F049FD07F07CFEEF
:1044E0006060099E311C281C09F085FD051C0A909E
:1044F000311C404609F07FFD061C0B905146386880
:1045000009F05EFD38600399786809F059FD78601C
:104510002168301C09F054FD4B461860291C606866
:1045200009F049FD4B465860311C206809F043FDF5
:104530002060291C606809F043FD60600837049B17
:10454000013B0493002B00D02BE715B0F0BCBB4619
:10455000B246A946A046F0BD0000E03FF0B5DE46F9
:1045600057464E464546E0B5B3B080461391180015
:10457000129314000934FF3404940B004343DA000F
:10458000A446624416A960CA60C11B01634414AA10
:1045900012CB12C2C300434400930301434403936C
:1045A000430084466344DB0043449B464301434449
:1045B0009A4600230293534601934746DEE118AC26
:1045C00021003B0021CB21C11193009B1968884633
:1045D000139D02925543EB00049A91469944494633
:1045E0000E68311C404609F006FD0590009B596895
:1045F0008A46494649688946504609F0FCFC011C38
:10460000059809F0D8FC0590A0604946404609F09D
:10461000F2FC80465146301C09F0EDFC011C40467E
:1046200009F0CEFC0690E060039A1668B0462B01B4
:104630000499894699444E463668311C404609F033
:10464000DAFC0790039A51688A46494649688946C8
:10465000504609F0D0FC011C079809F0ACFC07900B
:1046600020614946404609F0C6FC80465146301C50
:1046700009F0C1FC011C404609F0A2FC0A906061EF
:104680005E463668B1466B005B19DB0004988246D3
:104690009A4451460E68311C484609F0ACFC08901B
:1046A000594649688846514649688A46404609F055
:1046B000A2FC011C089809F07EFC0B90A0615146F9
:1046C000484609F098FC81464146301C09F093FCAD
:1046D000011C484609F074FC061CE06101990B6856
:1046E00098466D0104988246554428688146011C0D
:1046F000181C09F080FC089001994B689A466D6877
:10470000291C181C09F077FC011C089809F053FCBF
:1047100008902062291C404609F06DFC051C51469A
:10472000484609F068FC011C281C09F049FC051CDE
:104730006062089A9046111C059A9246101C09F076
:104740003FFC0590A063291C0698814609F038FCBF
:104750000690E0634146504609F02DFC0890206524
:10476000291C484609F027FC099060650B9B994677
:10477000191C079B9846181C09F022FC051C206494
:10478000311C0A9B9A46181C09F01AFC07906064B9
:104790004946404609F00FFC0B90A064311C50467E
:1047A00009F009FC0C90E0643E680A95291C059A02
:1047B0009046101C09F004FC011C301C09F000FCA0
:1047C00038607D68079B9946191C069809F0F8FB2C
:1047D000011CAA46281C09F0F3FB7860169F391CBF
:1047E000404609F008FC011C0F96301C09F0E8FB5C
:1047F000051C149EB046311C0A9809F0FCFB011CF4
:10480000281C09F0DDFB0D90A062391C069809F008
:10481000F2FB011C55461095504609F0D1FB051CD2
:10482000311C484609F0E7FB011C281C09F0C8FBB5
:10483000051CE062179EB146311C099809F0DBFBAC
:10484000061C15998A460C9809F0D5FB011C301CF2
:1048500009F0B6FB0E9020634946089809F0CBFB9F
:1048600080210906461851460B9809F0C4FB011C2B
:10487000301C09F0A0FB061C60630E990D9809F02E
:104880009AFB009B1860311C281C09F094FB009BCC
:1048900058600E990D9809F093FB01990860311C3E
:1048A000281C09F08DFB019948604146059809F0E4
:1048B000A2FB011C0F9809F083FB051C391C0A9808
:1048C00009F099FB011C281C09F07AFB051CA06566
:1048D0004146069809F08FFB011C109809F070FB07
:1048E000061C391C079809F086FB011C301C09F0D6
:1048F00067FB061CE06549460C9809F07CFB071C29
:104900005146099809F077FB011C381C09F053FB4C
:10491000071C20665146089809F06DFB8046494601
:104920000B9809F068FB011C404609F044FB8046E7
:104930006066391C281C09F043FB039C206041463B
:10494000301C09F03DFB6060391C281C09F033FB6A
:104950005D4628604146301C09F02DFB6860119FC0
:10496000009B083300930834039408239C46E344D7
:10497000019908310191029A531C0293029A129BE9
:104980009A4200DA1BE633B0F0BCBB46B246A946F9
:10499000A046F0BDF0B5C64600B50500884607F054
:1049A0008FFB07F025FC08F057F806000F000424E1
:1049B0001AE0032400E00224200007F081FB32000B
:1049C0003B0007F065FB00280ED02C000CE0210016
:1049D000280007F055F8050043461C60083342469E
:1049E000506001280CDD98462100280007F048F8A7
:1049F0000029ECD0022CDCD0042CDCD00234DBE724
:104A000080BCB846F0BDF0B5DE4657464E4645463A
:104A1000E0B58FB00A900691099384235B009C4611
:104A200094446346049313680593189BD80000F0E0
:104A3000B1FB029000230B9367E00B9B08930023CC
:104A400007934EE0FB00029A914699444B461B683F
:104A50009A46E500049B9C4665442B689846191CC1
:104A6000504609F0C8FA01904B465B6899466B685E
:104A70009B46191C484609F0BEFA011C019809F032
:104A80009AFA051C0C905946504609F0B4FA824631
:104A90004946404609F0AFFA011C504609F090FA29
:104AA00080460D90291C306809F08AFA3060414632
:104AB000706809F085FA70600137189B9F4208DA28
:104AC000069B039A5343E418059BA342BADCE41AFD
:104AD000B8E7089B099A944663440893079B0133FF
:104AE0000793079B189A93420CDA089B0393DE0006
:104AF0000A9B9C4666443300029A03CA03C30024FF
:104B00000127DAE70B9B01330B930B98099FB842FF
:104B100010DA0021029B9C460A9B9846189CA142F1
:104B20008BDAC2004244CB00634460CA60C3C01940
:104B30000131F4E7029800F035FB0FB0F0BCBB4642
:104B4000B246A946A046F0BDF0B5DE4657464E46F1
:104B50004546E0B585B003900C0015001F000E9B84
:104B60001A689146082293469B445B689A464B46D6
:104B700052465343DB0080469844012A23D0039ECB
:104B80000F9B01935B4600933B004A466A4321001A
:104B90003000FFF7D9FF2B007B43DB00E4185346BE
:104BA000DB00F618B045EBD14B46042B2FD018DCB8
:104BB000022B1FD0032B31D153460F9A29000398A3
:104BC000FFF7D4FB1CE003004146220041CA41C369
:104BD0001A002B007B43DB00E41813009142F4D150
:104BE000E2E7052B1AD153460F9A29000398FFF7E5
:104BF000B5FC05E053460F9A29000398FFF724FA05
:104C000005B0F0BCBB46B246A946A046F0BD53462F
:104C10000F9A29000398FFF773FAF1E74B460093C8
:104C200053460F9A29000398FFF7EDFEE8E70000CE
:104C3000F0B5D6464F464646C0B580460C0001004A
:104C40002131C9008A46002B11D0002A14D01968DE
:104C5000514514D35146196091464B46002B40D024
:104C600042461A605C60002C6CD0002732E00800DD
:104C700000F090FA8146F0E71960914631E0524623
:104C80001A60002399462CE0380007F019FA2F4AE1
:104C90002F4B07F09CF904000D00404607F010FA76
:104CA00002000B002000290007F073F904000D003A
:104CB00007F0B4FA4E460936FF36FB00F61807F047
:104CC0008BFA30602000290007F0BEFA07F084FA62
:104CD000706001374745D7DB494608314046FFF74A
:104CE00059FE089B002B01D052461A604846E0BC92
:104CF000BA46B146A846F0BD200007F0E1F9134AD4
:104D0000144B07F064F906000F00404607F0D8F98D
:104D100002000B003000390007F03BF906000F00DD
:104D200007F07CFA4D460935FF35E300ED1807F032
:104D300053FA28603000390007F086FA07F04CFA81
:104D4000686001344445D7DBC6E7C046182D44549B
:104D5000FB211940FB2119C0F0B5C64600B582B051
:104D600004000F0015001E0091420CD00300083310
:104D700001900093330001222800FFF7E5FE02B006
:104D800080BCB846F0BD0368D80000F003FA804646
:104D90002300083301940093330001223900FFF708
:104DA000D3FE2268D2004146280009F055FB404658
:104DB00000F0F8F9E3E710B50123FFF7CDFF10BDD0
:104DC000F0B5DE4657464E464546E0B585B00D0087
:104DD00016001F000023039301331A00024090467F
:104DE000034234D144100023009303AB002220007F
:104DF000FFF71EFF63001B19DA0FD2185210D20002
:104E0000039B9C4662440C239A469244002F24D074
:104E10003B68534526D353463B60B1464B46002B77
:104E200022D04A460C321A60039BD31849464B6085
:104E3000E1005B1849468B600023009303AB290017
:104E40002000FFF7F5FE002D00D185E041E0454848
:104E500000F07CF90023994645E0504600F09AF9AD
:104E60008146DBE753463B60002399463BE04346DF
:104E70005D1C280007F024F906000F00200007F051
:104E80001FF902000B003000390007F082F8002201
:104E9000354B07F075F8354A354B07F098F80600A2
:104EA0000F0007F0BBF94346DB0098464B469B6872
:104EB00043449B4607F090F95B4618603000390088
:104EC00007F0C2F94B469E68464407F085F97060CA
:104ED000A846E30F1B195B104345C8DC0E9B002B53
:104EE00001D052461A60484605B0F0BCBB46B246F7
:104EF000A946A046F0BD6B1C9846180007F0E0F8E4
:104F000006000F00200007F0DBF802000B00300065
:104F1000390007F03EF80022134B07F031F8134A2E
:104F2000144B07F054F806000F0007F077F9ED0076
:104F30004B469B689B46AB4407F04EF95B461860B6
:104F40003000390007F080F94B469B689C46654469
:104F500007F042F968604546E30F1B195B10AB424E
:104F6000C9DCBBE78CDC01100000E03F182D445485
:104F7000FB210940FB2109C0F0B5DE4657464E46ED
:104F80004546E0B593B081460C00009203685B682B
:104F9000002B23D14B461868036805934A46526894
:104FA0002100FFF708FF4A4653681D6806955E68B2
:104FB0000796311C281C09F003F8009F3860059BF8
:104FC000DC00BC466444311C281C08F0F4FF20605F
:104FD00000237B60636001231C008FE04F4800F0DA
:104FE000B5F8D7E74B465B68E20001929A180EA825
:104FF000824660CA60C00D1BED005B191F681097E8
:105000005E68802109068C46664411960E99884692
:10501000381C08F0D5FF02900C905046406882463C
:10502000011C301C08F0CCFF03900D90391C404649
:1050300008F0C1FF80460A90311C504608F0BBFFC3
:10504000071C0B90364EA619F6004B469B689C46F3
:10505000664433689A46191C404608F0CCFF049019
:105060007668B346311C381C08F0C5FF011C049853
:1050700008F0A1FF061C08905946404608F0BBFF07
:1050800080465146381C08F0B6FF011C404608F027
:1050900097FF071C0990311C029B9B46181C08F0C7
:1050A0008FFF019B009A944663449846FC21890532
:1050B00008F0A1FF43461860391C039B9A46181C50
:1050C00008F07EFFFC21890508F095FF43465860F3
:1050D000311C584608F06FFF009A94466544FC2145
:1050E000890508F088FF28605146381C08F063FFE6
:1050F000FC21890508F07FFF686001340599CB0F1A
:105100008C4663445B10A34200DB6BE713B0F0BC3A
:10511000BB46B246A946A046F0BDC046A8DC011079
:10512000FFFFFF1F0020704710B504F0B7F90029FA
:1051300000DB10BD024B034A3F21034805F0C0F8D5
:10514000D0DC0110ECDC011024DD01100FB400B53F
:1051500083B004AB04CB01938021C900064806F05C
:1051600037FC002803DC03B008BC04B01847024831
:1051700009F02EFBF7E7C0469826002010B508F08E
:10518000EFFF02000B00024809F022FB10BDC046F1
:1051900060DD011010B509F0E3F810BD10B509F09D
:1051A000FDF810BD10B509F039F910BDF0B583B0A8
:1051B00004000D0017001E000022002306F04AFF25
:1051C000002804D000233B60336003B0F0BD320000
:1051D0002000290018F068FA00221D4B06F0F7FEA7
:1051E00007F0ECFB06F0CCFF04000D1E14DC0029D8
:1051F0000ED080231B069C4210D0002D26DC21D02F
:1052000033681F3302DA0023336000243C60DCE79C
:1052100080231B069842ECD914F0E2F8002DECD163
:10522000EA0F002312196B411C001300E1070093E1
:105230000194520811430C00019B5D103368013347
:105240003360DAE780231B069C42D9D314F0C8F8F8
:105250000000E041F8B506000F0015001C00002218
:10526000094B06F015FF002809D023002A00300062
:105270003900FFF79BFF2368002B02DBF8BD14F019
:10528000AFF814F0ADF8C0460000F03F30B585B07F
:1052900006F09DFE04000D0080200006089BD8400B
:1052A00006F00EFF22002B0006F091FE0090019107
:1052B000094A0A4B0292039306F0EAFE002808D13D
:1052C0006B46186859680A9B099AFFF7C3FF05B037
:1052D00030BD02ABF5E7C0460000C0FFFFFFDF4175
:1052E000F0B5C64600B503000C0001209840013817
:1052F000D21A20235B42D3182BD401259D400123D1
:105300009340984606F0DCFE06000F004046290058
:1053100006F02AFF02000B003000390006F057FEAD
:1053200006000F0020235B42E31817D401219940A7
:105330000120A04006F018FF02000B0030003900E9
:1053400006F027FE07F088FB06F0D2FE80BCB846C8
:10535000F0BD20239B1A0125DD40D0E720231B1B35
:105360000121D940E4E7000030B58BB001910092F3
:10537000DD681C690395049401280AD0032820D015
:10538000022845D00E9B019A1A600F9B009A1A6062
:1053900013E0291C002008F018FE08F083FF08F035
:1053A000A5FE24180594019BA34208DB01AB1B68F2
:1053B0000E9A13600F9B009A1A600BB030BD05ABBC
:1053C000F5E7291C002008F000FE08F06BFF08F04C
:1053D0008DFE20180690019B834215DB01AB1B68F4
:1053E0000E9A1360291C1E4808F0EFFD08F05AFFC2
:1053F00008F07CFE24180794009BA34206DC6B4651
:105400001B680F9A1360D8E706ABE8E707ABF7E72E
:10541000291C144808F0D9FD08F044FF08F066FE86
:1054200020180890019B834216DB01AB1B680E9A83
:105430001360291CFE20800508F0C7FD08F032FF2C
:1054400008F054FE24180994009BA34206DC6B4626
:105450001B680F9A1360B0E708ABE7E709ABF7E703
:105460000000C040000080BF10B50B6802CB002ACE
:1054700010DB8A4210DA920099584B1C0ED000299A
:105480000EDB8368002B02D08801181810BD036D55
:105490009847FBE70020F9E70020F7E70020F5E751
:1054A0000020F3E710B54B6802CB002A10DB9142D5
:1054B00010DD920099584B1C0ED000290EDB83683A
:1054C000002B02D08801181810BD036D9847FBE728
:1054D0000020F9E70020F7E70020F5E70020F3E7D8
:1054E00010B5FFF7C1FF10BDF0B5C64600B582B0DC
:1054F00080461D00C868D16808F07DFD041C08F0D6
:105500002FFE06000F000021201C08F0BBFD002824
:1055100010D0E86808F024FE02000B0030003900CB
:1055200006F037FD089B18605960002002B080BC6F
:10553000B846F0BD43465C695223044A0092FF33EB
:10554000034A04494046A0470120EFE7D8DD011097
:1055500064DD0110C0DD0110F0B5C64600B584B0B1
:1055600080460D0016001C000A9FC86808F0F8FD70
:1055700002900391F06808F0F3FD02000B0002981E
:10558000039906F024FD02900391002C1AD0E068E4
:1055900008F0E6FD02000B000298039906F0E7FC14
:1055A00002904C006408F86808F0DAFD02000B0075
:1055B0000298210006F0EDFC0E4A0F4B06F058FD54
:1055C00000280BD00B9B00933B0032002900404683
:1055D000FFF78AFF04B080BCB846F0BD43465C6963
:1055E000A223064A00925B00054A06494046A047AE
:1055F0000120EFE77B14AE47E17A943FF4DD011020
:1056000064DD0110C0DD011030B583B00D00140061
:105610001278032A0DD0092A0ED0072A19D044691E
:10562000C2230D4A00925B000C4A0D49A04701209D
:105630000DE0FF22002102E07F22802149420698EE
:105640000190009323002800FFF78EFE002003B096
:1056500030BD044A0449F2E718DE011064DD011090
:10566000C0DD0110FF7F00000080FFFF10B50028A3
:1056700001D0006810BD13F0B3FE002800D0006810
:10568000704770470840704708417047401870479E
:10569000C043704710B5002802D00020FFF7F8FF84
:1056A00010BD10B50123884200DB00231800FFF76E
:1056B000F1FF10BD10B50123884200DC0023180063
:1056C000FFF7E8FF10BD10B5002801D0006810BD3D
:1056D00013F086FE10B5002801D0006810BD13F04D
:1056E0007FFE10B5002802D006F098F910BD2020EA
:1056F000FCE730B50400C5170800C9170019694157
:1057000000290BDB0122002312184B41D80F002186
:1057100080185941CB074008184330BD012252423E
:10572000D317F1E770B50A00884219D00024C117D9
:10573000D31708F023FC02000B1E19DB8025ED05B2
:105740002800E91712184B41DD176D006808002189
:10575000801859414B00C00F1843002C0AD170BD6E
:1057600080210906884201D00024E0E70124DEE719
:10577000014DE5E70148F2E7010000C0FFFFFF7FB0
:1057800010B5FFF783FF10BD70B50A00884219D02D
:105790000024C117D31708F0F1FB02000B1E19DB20
:1057A0008025ED052800E91712184B41DD176D0023
:1057B00068080021801859414B00C00F1843002C85
:1057C0000AD170BD80210906884201D00024E0E79B
:1057D0000124DEE7014DE5E70148F2E7010000C0E2
:1057E000FFFFFF7F7047401A704710B5FFF7FBFFC0
:1057F00010BD000010B50200C31701208840C1177A
:1058000008F0BCFB03004A1C09DB4A1C03D000293A
:105810000CDC07D010BD802212069042F7D2802007
:105820000006F7E7802212069342F3D30048F1E71F
:10583000FFFFFF7F4840704770B504001600FFF778
:1058400021FF05002000FFF723FF3100FFF71AFFBB
:1058500001002800FFF7EEFF70BD0000F0B5C6465E
:1058600000B5040080200006FFF70BFF0600124879
:10587000FFF707FF80461148FFF703FF01002000F4
:10588000FFF718FF07000E48FFF7FBFE010020009E
:10589000FFF707FF050002212000FFF7ABFF020022
:1058A00041463800FFF7C8FF020031002800FFF72B
:1058B000C3FF80BCB846F0BDFFFFFF7FFFFFFF1FA7
:1058C000010000E010B5FFF7C9FF10BDF0B5C646F6
:1058D00000B5040080200006FFF7D3FE0600124842
:1058E000FFF7CFFE80461148FFF7CBFE01002000F6
:1058F000FFF7E0FE07000E48FFF7C3FE010020009F
:10590000FFF7CFFE050001212000FFF773FF020023
:1059100041463800FFF790FF020031002800FFF7F2
:105920008BFF80BCB846F0BDFFFFFF7FFFFFFF3F4E
:10593000010000C010B5FFF7C9FF10BDF0B5D64695
:105940004F464646C0B504005048FFF79AFE010096
:105950002000FFF7CEFE06000020FFF792FE0500B4
:105960000020FFF78EFE80460120FFF78AFE04002C
:10597000474F29003800FFF785FE814601212800A6
:10598000FFF782FE050041463800FFF78AFE21003E
:10599000FFF778FE01002800FFF778FE804600211F
:1059A0003800FFF771FE050041464846FFF782FECA
:1059B0002100FFF767FE01002800FFF767FEFFF7F1
:1059C00060FE82460020FFF75CFE05000020FFF726
:1059D00058FE81460120FFF754FE04002D4F290098
:1059E0003800FFF74FFE804601212800FFF74CFEEC
:1059F000050049463800FFF754FE2100FFF742FE3C
:105A000001002800FFF742FE814600213800FFF721
:105A10003BFE050049464046FFF74CFE2100FFF7DC
:105A200031FE01002800FFF731FEFFF72AFE0100DA
:105A30003000FFF777FE01005046FFF7A1FE04009B
:105A4000002517E021003000FFF76CFE07008020E2
:105A50008005FFF716FE3900FFF7C7FE01002000A2
:105A6000FFF792FEFFF72EFF01002000FFF788FEF0
:105A700004000135022DE5DD2000FFF7B3FEFFF73E
:105A800059FFE0BCBA46B146A846F0BDFFFFFF7F14
:105A90005A5A5A5AC4C3C3C310B5836B002B02D0E1
:105AA0002021984710BD13F09BFC0000F0B5D646AE
:105AB0004F4680B587B005000C000B699946002B56
:105AC0002DD04B699A46002B2BD0394B1A68FFF723
:105AD000CBFC061E27D0374B1A6821002800FFF7A1
